:060000000A128A11122809
:10000800FE00030EF4000408F5000A08F600831247
:1000180003137F08F7000A128A11CB290A128A11E2
:100028001528C001C101C201C30183010A128A1146
:10003800902883120313BD010930BE000030BF00B1
:10004800310830042F042E04031D7E283030B200FE
:100058003E08333E8400320883138000FF30BE0719
:100068000318BF0AFF30BF0786280030A3000030FE
:10007800A2000030A1000A30A0003108A700300813
:10008800A6002F08A5002E08A4000A128A115021E4
:100098000A128A11831203132008303EB2003E0868
:1000A800333E8400320883138000FF30BE070318F4
:1000B800BF0AFF30BF070030A3000030A2000030A5
:1000C800A1000A30A0003108A7003008A6002F08B8
:1000D800A5002E08A4000A128A11F0200A128A111B
:1000E800831203132308B1002208B0002108AF00CF
:1000F8002008AE00310830042F042E040319862886
:10010800BF1F39283E08013E333EA2000030A3003D
:100118000A128A11F62108000730831603139F007C
:100128008312031386018801831603138501860150
:100138008801043087000A128A119E210A128A1146
:100148003030831203139000053097008316031391
:100158000C15831203130C110B178B171014C630D0
:100168000A128A1167220A128A11013083120313B4
:10017800A2008030A3000A128A11F6210A128A11FD
:100188009A300A128A1167220A128A1183120313FB
:100198004308B1004208B0004108AF004008AE0073
:1001A8000A128A111D200A128A110A3083120313B7
:1001B800A2008030A3000A128A11F6210A128A11BD
:1001C800643083120313A0000030A1000A128A11C0
:1001D8003C220A128A11B328003083120313AC00A0
:1001E8000030AB000030AA000030A9002308220428
:1001F8002104200403194729AD01AD0AA31B1229C4
:100208000130A8000310A00DA10DA20DA30DA80B8D
:1002180006290130A8002808AD0702290130A800E6
:100228000310A90DAA0DAB0DAC0DA80B14292308BA
:100238002702031D292922082602031D292921082E
:100248002502031D292920082402031C3A29200815
:10025800A4022108031C210FA5022208031C220F57
:10026800A6022308031C230FA70229140130031038
:10027800A30CA20CA10CA00CFF3E031D3B290130CE
:10028800AD02031D12292C08A3002B08A2002A087E
:10029800A1002908A00008008312031323082204E0
:1002A8002104200403199529A901A90AA31B6A2975
:1002B8000130A8000310A00DA10DA20DA30DA80BDD
:1002C8005E290130A8002808A9075A29230827020F
:1002D800031D782922082602031D782921082502F2
:1002E800031D782920082402031C88292008A40259
:1002F8002108031C210FA5022208031C220FA602B5
:100308002308031C230FA70201300310A30CA20C1F
:10031800A10CA00CFF3E031D89290130A902031D71
:100328006A292708A3002608A2002508A100240896
:10033800A0000800143083120313A0000030A100AD
:100348000A128A113C220A128A1138300A128A11BA
:1003580067220A128A110C300A128A1167220A12BD
:100368008A1101300A128A1167220A128A11023090
:1003780083120313A0000030A1000A128A113C2244
:100388000A128A1106300A128A11672208008B1392
:100398000C1DEA290C118E018F0101308506150804
:1003A800F0001608F100F201F30103300310F00D1C
:1003B800F10DF20DF30DFF3E031DDA297308C3009A
:1003C8007208C2007108C1007008C0008B17770856
:1003D800FF0076088A0075088400740E8300FE0EFC
:1003E8007E0E0900831203132308FF0022088400ED
:1003F8000A128A111B220A128A11003803190800EE
:10040800831203132308FF00220884000A128A11AA
:100418001B220A128A110A128A1156220A128A11FA
:10042800013083120313A2070318A30AF629FF1B3E
:10043800252A83137F1883170008840A0319FF0AE3
:10044800080002308A000408840A82070034503405
:100458006534723469346F3464343A342034003487
:10046800203475347334203420342034203400345C
:10047800013083120313A0020030031CA103A10260
:10048800FF302106031D4A2AFF3020060319080001
:10049800F93083120313A2000000A20B502A542A39
:1004A80000003C2A83120313A100210886000814C7
:1004B800081188141030A000A00B602A00008312D5
:1004C80003138810080083120313A1002108860073
:1004D8000810081188141030A000A00B712A000021
:0804E8008312031388100800C1
:02400E0071FF40
:00000001FF
