:060000000A128A11FA2F1A
:100E8E0038300A128A119A270A128A1108300A1269
:100E9E008A119A270A128A1101300A128A119A2788
:100EAE000A128A1106300A128A119A270A128A1118
:100EBE000E300A128A119A270A128A1106300A1265
:100ECE008A119A270A128A1180300A128A119A27D9
:100EDE000800F2007208831203138600071407112C
:100EEE008714F001F1017108803AFF0080307F0213
:100EFE00031D832F643070020318962F0130F00704
:100F0E000318F10A0030F1077108803AFF008030B3
:100F1E007F02031D942F64307002031C852F8312F1
:100F2E00031387100800F200720883120313860061
:100F3E00071007118714F001F1017108803AFF00C4
:100F4E0080307F02031DAD2F643070020318C02F56
:100F5E000130F0070318F10A0030F1077108803AEA
:100F6E00FF0080307F02031DBE2F64307002031C11
:100F7E00AF2F831203138710080083160313860105
:100F8E008701FF3088000A128A1147270A128A1138
:100F9E00C6300A128A119A270A128A1148300A128A
:100FAE008A1170270A128A1145300A128A11702787
:100FBE000A128A114C300A128A1170270A128A11EB
:100FCE004C300A128A1170270A128A114F300A12F7
:100FDE008A1170270A128A1121300A128A1170277B
:100FEE000A128A11F92FF001F10183010A128A11F6
:020FFE00C42FFE
:02400E0071FF40
:00000001FF
