:060000000A128A11122809
:10000800FE00030EF1000408F2000A08F300831250
:1000180003137F08F4000A128A1170280A128A1141
:100028001528F601F701F80183010A128A111C2824
:10003800FF308316031386008701FF308800760897
:10004800831203138700C4308316031381008B10B7
:100058000B160B118B168B1762308312A000003021
:10006800A1000A128A1147200A128A11013083124C
:100078000313A5002508F6070A3076020318F601CF
:1000880076088700302883120313A301A401831282
:1000980003132408803AA2002108803A2202031D93
:1000A800572820082302031808007808013A031D7E
:1000B800622883120313A301A401F8017708013A07
:1000C800031D4B28013083120313A3070318A40A46
:1000D8000030A407F7014B288B1C87288B100808D1
:1000E8000F39F0007008F5007508013E84000A1207
:1000F8008A1197200A128A11F0007008F600760813
:100108008700F801F80A0B1D8C280B11F701F70A74
:100118007408FF0073088A0072088400710E830057
:10012800FE0E7E0E090000308A000408840A820749
:100138000034013402340334003404340534063402
:1001480000340734083409340034003400340034EF
:02015800003471
:02400E0071FF40
:00000001FF
