:060000000A128A11122809
:10000800FE00030EF1000408F2000A08F300831250
:1000180003137F08F4000A128A1143280A128A116E
:100028001528F601F701F80183010A128A111C2824
:10003800FF30831603138600870183120313870199
:10004800C4308316031381008B100B160B118B160B
:100058008B177708013A031D2D287A307802031C84
:100068002D28F8010130F5007508F6070A307602E8
:100078000318F60176088312031387002D288B1CBA
:100088004A288B100130F0007008F7060B1D512824
:100098000B110130F0007008F8077408FF007308AE
:1000A8008A0072088400710E8300FE0E7E0E09001D
:02400E0071FF40
:00000001FF
