:100000000A128A11FC2F00308A000408840A820731
:100010000034203420342034203420342034203460
:1000200020342034203420343034303431343234ED
:10003000333434344434003431343234333441349E
:100040003434353436344234373438343934433444
:0C00500031343134313431344434003464
:100E1E008312031308080F39F0007008F1007108EF
:100E2E00080001300A128A1126270A128A1102308E
:100E3E00F0000030F1000A128A1188270800F6002F
:100E4E007608831203138700861206138617013065
:100E5E00F0000030F1000A128A1188278312031362
:100E6E0086130800F6007608831203138700861691
:100E7E00061386170130F0000030F1000A128A11B5
:100E8E0088278312031386130800F900F908031943
:100E9E00542F7908143A031D562FC630612F790846
:100EAE00283A031D5C2F9430612F79083C3A031DBC
:100EBE00642FD430F7007708F80078080A128A11E8
:100ECE00262708000F30F0000030F1000A128A11B8
:100EDE0088270A128A1138300A128A1126270A1216
:100EEE008A110F300A128A1126270A128A110A1243
:100EFE008A1118270A128A1106300A128A11262719
:100F0E000800F201F30171087302031D902F70089F
:100F1E00720203180800F401F50103307502E8307F
:100F2E00031974020318A82F0130F4070318F50AE9
:100F3E000030F50703307502E83003197402031C04
:100F4E009B2F0130F2070318F30A0030F3078A2FA4
:100F5E008316031386018701FF30880006309F0039
:100F6E000A128A1169270A128A11FC0183120313CD
:100F7E00081EBD2F0A128A110F270A128A11FA00B3
:100F8E007A08FB0083120313081AC92F50307C0213
:100F9E00031CD72F0A128A1118270A128A11FC0174
:100FAE007C080A128A114C270A128A117B08143EF9
:100FBE0084000A128A1103200A128A110A128A1157
:100FCE0039270A128A117B08013E84000A128A11FF
:100FDE0003200A128A110A128A1139270A128A115B
:100FEE000130FA007A08FC07BD2F83010A128A111C
:020FFE00AF2F13
:02400E0071FF40
:00000001FF
